:100000003EEF04F00000000000EF00F000000000F0
:0A0010000000000000000000F3D71C
:10001C000F0E0C6E470E0D6E0D2EFED70C2EFCD750
:06002C00000000001200BC
:06003200000000001200B6
:0A003800210E0D6E0D2EFED71200F2
:0E004200ACB202D00000FCD761C0ADFF1200CE
:10005000000161BF02D0839E01D0838E61BD02D0BA
:10006000839C01D0838C61BB02D0839A01D0838AA8
:1000700061B902D0839801D083883DB002D08484D6
:1000800001D084948482D5DF849261B702D0839EAC
:1000900001D0838E61B502D0839C01D0838C61B383
:1000A00002D0839A01D0838A61B102D0839801D0B3
:1000B00083883DB002D0848401D084948482B9DFE7
:0E00C00084923DA002D0AADF01D0B6DF12006C
:0C00CE003D905DC061F0BDDF3D80120080
:1000DA000001606B5DC0E9FF5EC0EAFFEECF5FF032
:1000EA005F50000A0EE05FC061F0A6DF0001602BDE
:1000FA0060515D24E96E000E5E20EA6EEECF5FF07D
:04010A00EFD7120019
:10010E005A6A5A505824E96E000E5920EA6EEE5281
:10011E000BE05A505824E96E000E5920EA6EEECFCD
:0A012E005DF0CEDF5A2AEDD7120073
:10013800010E5824E96E000E5920EA6EEE525CE07A
:10014800020E5824D96E000E5920DA6EDECF00F068
:1001580000C002F0010E006E000E016E025005E0B4
:10016800003600900136FF0FFAD700508114026E56
:10017800000E0114036E000E031802E10250000A7B
:100188003BE1340E0C6EF10E0D6E0D2EFED70C2ECB
:10019800FCD700000000020E5824D96E000E59202A
:1001A800DA6EDECF00F000C002F0010E006E000E25
:1001B800016E025005E0003600900136FF0FFAD7B5
:1001C80000508114026E000E0114036E02500310D9
:1001D800010ED8A4000E006E58C0E1FF59C0E2FF1E
:1001E80000C0E6FF010E5824E16E000E5920E26EB1
:1001F800E66A010E006E2AD0020E5824D96E000E4F
:100208005920DA6EDECF00F000C002F0010E006E59
:10021800000E016E025005E0003600900136FF0F17
:10022800FAD781500016000E0116005001100DE09B
:10023800010E5824E16E000E5920E26E010EE66EA2
:0E02480058C0E1FF59C0E2FFE66A006A1200EA
:100256005A6A5B6A800E5B18006E800E005C02E1D3
:10026600040E5A5C44E25AC000F05BC001F0013251
:100276000032019E01BC018E01AE03D002E3004AAA
:10028600012A580E0024E16E000E0120E26E5AC0CB
:1002960000F05BC001F00036009001361E0E00240F
:1002A600E96E000E0120EA6EEECF00F00A0E0002A3
:1002B600F3CF05F0010E5A24036E000E5B20046E88
:1002C60003C000F004C001F00036009001361E0E97
:1002D6000024D96E000E0120DA6EDE500524006E71
:1002E60000C0E6FF020E5A26000E5B22B3D7580E58
:0A02F6005D6E000E5E6EEEDE12007B
:100300000FD0800E586E19D0C00E586E16D0940EB5
:10031000586E13D0D40E586E10D0800E586E0DD07B
:100320005850010AEEE05850020AEEE05850030A15
:10033000EEE05850040AEEE0F0D75904006E585031
:10034000002600C058F000C061F082DE3D905C6A7B
:100350005C505A24E96E000E5B20EA6EEE520BE010
:100360005C505A24E96E000E5B20EA6EEECF5DF021
:0A037000AEDE5C2AEDD73D801200DE
:10037A00969296949598959A959C959E8492849433
:10038A00839E839C839A839844DE43DE42DE838A7B
:10039A008388848249DE84923CDE848245DE8492AC
:1003AA0038DE848241DE849234DE839884823CDEA5
:1003BA0084922FDE848238DE8492839A838E8482AA
:1003CA0033DE849226DE839E838884822DDE8492A5
:1003DA008398848229DE84921CDE848225DE8492BC
:1003EA008388848221DE849214DE839884821CDED0
:1003FA008492838E838C838A8388848215DE849296
:06040A0008DE3D80120037
:10041000420E466E000E476E610E486E000E496E2B
:10042000FF0E4A6EFF0E4B6E000E4C6E000E4D6EB0
:10043000FF0E3E6EFF0E3F6E000E406E000E416ED0
:10044000FF0E426EFF0E436E000E446E000E456EB0
:10045000AC8A900EAB6E948E949C9EAA03D0AECFC5
:0604600000F0FBD71200C2
:100466000900F5CFE6FF0006FBE10106F9E11200FF
:10047600260E586E000E596E5CDE0052D8B47DD042
:100486001CC000F01DC001F00036009001361E0EA3
:100496000024026E000E0120036E02C0E9FF03C0B5
:1004A600EAFFFF0EEE24006EFF0EEE20016E02C084
:1004B600E1FF03C0E2FF00C0E6FF01C0E6FF1CC08B
:1004C60000F01DC001F00036009001361E0E00241B
:1004D600056E000E0120066E05C0E9FF06C0EAFFA4
:1004E600EECF01F0EECF02F0800E0218006E800E05
:1004F600005C02E1000E015C05E2090E4E6E000E84
:100506004F6E32D01CC000F01DC001F000360090C6
:1005160001361E0E0024E96E000E0120EA6EEECFB3
:1005260001F0EECF02F0800E006E800E0218005C25
:1005360002E10150090803E2036A046A11D01CC0F3
:1005460000F01DC001F00036009001361E0E00249A
:10055600E96E000E0120EA6EEECF03F0EECF04F056
:1005660003C04EF004C04FF005C0E1FF06C0E2FF35
:100576004EC0E6FF4FC0E6FF2FD1290E586E000E83
:10058600596ED7DD0052D8B47DD01CC000F01DC016
:1005960001F00036009001361E0E0024026E000E99
:1005A6000120036E02C0E9FF03C0EAFF010EEE243C
:1005B600006E000EEE20016E02C0E1FF03C0E2FFF6
:1005C60000C0E6FF01C0E6FF1CC000F01DC001F040
:1005D6000036009001361E0E0024056E000E012026
:1005E600066E05C0E9FF06C0EAFFEECF01F0EECFCA
:1005F60002F0800E0218006E800E005C02E1000E12
:10060600015C05E2090E506E000E516E32D01CC020
:1006160000F01DC001F00036009001361E0E0024C9
:10062600E96E000E0120EA6EEECF01F0EECF02F089
:10063600800E006E800E0218005C02E1015009086F
:1006460003E2036A046A11D01CC000F01DC001F069
:100656000036009001361E0E0024E96E000E0120C1
:10066600EA6EEECF03F0EECF04F003C050F004C004
:1006760051F005C0E1FF06C0E2FF50C0E6FF51C0E1
:10068600E6FFAAD02C0E586E000E596E52DD0052AF
:1006960031E0010E1C24006E000E1D20016E00C00C
:1006A6001CF001C01DF0800E1D18006E800E005C4F
:1006B60002E1000E1C5C05E2030E526E000E536E44
:1006C60014D0800E006E800E1D18005C02E11C50D6
:1006D600030803E2006A016A04D01CC000F01DC0D2
:1006E60001F000C052F001C053F052C01CF053C0DC
:1006F6001DF072D02F0E586E000E596E1ADD005284
:1007060031E0FF0E1C24016EFF0E1D20026E01C09B
:100716001CF002C01DF0800E0218006E800E005CF8
:1007260002E1000E015C05E2030E546E000E556EEA
:1007360014D0800E006E800E1D18005C02E11C5065
:10074600030803E2006A016A04D01CC000F01DC061
:1007560001F000C054F001C055F054C01CF055C063
:100766001DF03AD0320E586E000E596EE2DC005281
:1007760033E06EDD010E616F68DC010E586E010E0E
:10078600596E350E5A6E000E5B6EB7DD8282566A62
:10079600576A800E5718006E800E005C02E1030E49
:1007A600565C14E22E0E5D6E8FDC0B0E0B6E260E63
:1007B6000C6E5D0E0D6E0D2EFED70C2EFCD70B2E7D
:1007C600FAD700000000564A572AE3D70001010E67
:1007D600616F3BDC82924ED0010E586E010E596E4F
:1007E600150E5A6E000E5B6E88DD566A576A800ECD
:1007F6005718006E800E005C02E1020E565C14E291
:1008060056C000F057C001F00036009001361E0EAB
:100816000024E96E000E0120EA6E300EEE245D6EB5
:1008260053DC564A572AE3D7180E586E000E596EF7
:100836006BDC020E566E000E576E800E5718006E59
:10084600800E005C02E1040E565C14E256C000F015
:1008560057C001F00036009001361E0E0024E96EE6
:10086600000E0120EA6E300EEE245D6E2DDC564A37
:06087600572AE3D712002F
:10087C006CEC04F00F0EC16E1F0E93129492B8869E
:10088C00B06ACF0EAF6EAC84BDDD71DD0C0E000115
:10089C00616F28EC00F0010E616F28EC00F0E5DDD3
:0408AC00FED7FFD79D
:1008D80010EE15F0280E006E010E016EB00EF66EC9
:0E08E800080EF76E000EF86E33EC02F01200F0
:0308B000783A0093
:0408B30020793A006E
:1008B7000000000001000200030000010000010128
:0908C7000001020001030001041C
:0808D00053656E64696E670058
:020000040030CA
:0D000100231F3CFFBF81FF0FC00FE00F4029
:00000001FF
